:020000041000EA
:1000000000B5324B212058609868022188439860DF
:10001000D860186158612E4B002199600221596106
:100020000121F02299502B49196001219960352056
:1000300000F044F80222904214D00621196600F024
:1000400034F8196E01211966002018661A6600F04E
:100050002CF8196E196E196E052000F02FF8012189
:100060000842F9D1002199601B49196000215960AB
:100070001A491B48016001219960EB211966A021F2
:10008000196600F012F800219960164914480160C1
:100090000121996001BC002800D000471248134993
:1000A000086003C880F30888084703B5996A0420EC
:1000B0000142FBD001200142F8D103BD02B5186610
:1000C0001866FFF7F2FF186E186E02BD00000240BE
:1000D000000000180000070000035F00212200005C
:1000E000F4000018222000A00001001008ED00E03C
:1000F00000000000000000000000000074B24E7A12
:1001000000200420F7010010C3010010C5010010F9
:10011000C1010010C1010010C1010010C101001097
:10012000C1010010C1010010C1010010C701001081
:10013000C1010010C1010010C9010010CB01001065
:10014000CD010010CD010010CD010010CD01001037
:10015000CD010010CD010010CD010010CD01001027
:10016000CD010010CD010010CD010010CD01001017
:10017000CD010010CD010010CD010010CD01001007
:10018000CD010010CD010010CD010010CD010010F7
:10019000CD010010CD010010CD010010CD010010E7
:1001A000CD010010CD010010CD010010CD010010D7
:1001B000CD010010CD010010CD010010CD010010C7
:1001C00000BE00BE00BE00BE00BE00BEEFF3058054
:1001D000103800BEF2EB887180270110AC270110A7
:1001E0003402001090A31AE700201F49086006C8D7
:1001F00081F3088810471D48006800282FD10DA4FE
:100200000ECC002902D000F012F8F9E71849194A7B
:10021000002000E001C19142FCD1174988471749ED
:1002200088471749884700BEFDE701C901C29A42C5
:10023000FBD37047AC270110C0000020D81B002062
:10024000C44201100000042000000420C442011038
:10025000001004200010042000000000704709482E
:1002600009F0D6FE0047000008ED00E0000000D0D5
:10027000D81B0020CCEA0220C9880010955F00102E
:10028000898800105756000006005250ABB36053E7
:10029000A420011006005250861C0302B420011055
:1002A000060052505422A29DC42001100500525055
:1002B000DE65F468C4420110F8B5C0460448054B39
:1002C00010B5834203D0044B002B00D0984710BDDB
:1002D000D81B0020D81B002000000000064807495A
:1002E000091A8B10C90FC91810B5491003D0044B57
:1002F000002B00D0984710BDD81B0020D81B002031
:100300000000000010B5074C2378002B09D1FFF73F
:10031000D5FF054B002B02D0044800E000BF0123AD
:10032000237010BD981E0020000000000806011078
:10033000054B10B5002B03D00449054800E000BF71
:10034000FFF7CCFF10BDC046000000009C1E00203F
:100350000806011070B53C4B597E1A7E0902114304
:100360009A7E12040A43D97E090611432B22985C17
:1003700001329A5CCC43120202432D20185C250402
:10038000000410432E229A5C2E0C12060243D24324
:100390001204120C002D46D0964243D02B330A0A89
:1003A0005A70FF221500080C1970090E9870D97048
:1003B0002540224236D0254924220C1F200010F06F
:1003C00025F8234B22681968656291422AD1596841
:1003D0006268914226D1A1689A68914222D1E1686F
:1003E000DA6891421ED121691A6991421AD1616974
:1003F0005A69914216D1A1699A69914212D1E16973
:10040000DA6991420ED1216A1A6A91420AD15B6A75
:100410009D4207D10F480AF0EDFE01210E4A1378E4
:100420004B40137070BD2B33080A5870FF200D0C21
:100430009D7005001970090ED97025402042F1D039
:10044000002AB8D1EEE7C0467CE6022098D401200D
:10045000901400200806011073E60220F8B59E4CA7
:10046000CE46474620009D4B80B5190008228026C5
:10047000333098460AF0A6FD202300257642E65444
:100480000133E5540133E6540133E5540133E554B7
:100490000133E5540133E5540133E55401272300CA
:1004A0000F227F422B331F705F709A70DD70200027
:1004B000230091462F334146073A6E302677A677C0
:1004C00025756575A575E5756577E5771D705D70B2
:1004D0009D70DD700AF076FD4F23E55423004F3305
:1004E0005D705123E554230051335D705723E6546A
:1004F000230057335D705923E654230059335D7050
:100500005B23E65423005B335D705D23E6542300D8
:100510005D335D705F23E55423005F335D706123BD
:10052000E554230061335D7023004A4666331F7033
:100530005F709A70DD702000230041466A33073AED
:10054000A9301D705D709D70DD700AF03BFD8A233F
:10055000E55423008A335D708C23E55423008C33EB
:100560005D709223E654230092335D709423E65429
:10057000230094335D709623E654230096335D7018
:100580009823E654230098335D709A23E5542300A2
:100590009A335D709C23E55423009C335D70A12346
:1005A000E75423004A46A1335F709A70DD70A5239B
:1005B0002000E55423004146A533073AE4305D703E
:1005C0009D70DD700AF0FEFCC523E5542300C533A1
:1005D0005D70C723E5542300C7335D70CD23E65417
:1005E0002300CD335D70CF23E6542300CF335D70FD
:1005F000D123E6542300D1335D70D323E654230086
:10060000D3335D70D523E5542300D5335D70D723F4
:10061000E5542300D7335D70DC23E75423004A46BA
:10062000DC335F709A70DD70E0232000E554230016
:100630002030E0334146073AFF305D709D70DD7039
:100640000AF0C0FC80235B00E554E3185D70812351
:100650005B00E554E3185D7084235B00E6542300DF
:100660000933FF335D7085235B00E65423000B33B1
:10067000FF335D7086235B00E65423000D33FF33A8
:100680005D7087235B00E65423000F33FF335D70FA
:1006900088235B00E55423001133FF335D70892309
:1006A0005B00E55423001333FF335D701823FF33E1
:1006B000E75423004A461833FF335F70DD709A70A9
:1006C0001C23FF33E554E4186570A570E570C0BCC9
:1006D000B946B046F8BDC0467CE602209816002018
:1006E000F0B54646D6464F46404BC0B506001868A2
:1006F0008A46984600284BDD002300249C463C4D4A
:1007000021010B1B9B001B1BEA5CEB1891464F461B
:100710005A78120217439A7812041743DA781206AD
:100720003A43B24239D00134A042E9DC6346002B9F
:1007300001D04346186000282AD001232B720023E1
:100740006B72AB72EB72012822D02A000221433275
:10075000117053709370D370022819D02A000131A0
:100760007E32117053709370D370032810D0B92269
:100770000131A9542A00B93253709370D370042800
:1007800006D0F4220131A954F4356B70AB70EB70D4
:10079000E0BCBA46B146A846F0BD524601320DD083
:1007A0001A7991464F465A79120217439A79DB79A2
:1007B00012043A431B0613435345B4D1431E9946D2
:1007C000A3420EDD0B1B9B001B1B1900001B02012B
:1007D000121A9200121A3B313B3A6918E8180FF0CE
:1007E00015FE012348469C469EE7C0464CC80220A1
:1007F0007CE60220F0B5CE46474680B5002824D0DE
:10080000184BFF261F68184B49081A6800239946A1
:10081000FF231B029846FF2304321B063F249C46FD
:1008200008189200360403E0D651013188420CD0FA
:1008300023000B40092BF7D91D000F3D092D08D8C7
:1008400063460131D3518842F2D1C0BCB946B046AB
:10085000F0BD1E3B092B02D84346D351E5E74B467A
:10086000D351E2E7A4E70220A8E7022070B5040014
:100870000800642109F026FC002C12D000220B4B4A
:100880001D680B4B1868043080000B025B181B02BC
:100890005B181B02013143510132642902D094429A
:1008A000F3D170BDA242FCD00021EEE7A4E7022004
:1008B000A8E70220F0B5C646070000B5080064218D
:1008C00009F000FC0C00002F17D000250E4B1B6810
:1008D00098460E4B1E680436B600E0B20A2109F0B5
:1008E000F1FB4246C3B21B0223431B020134B35047
:1008F0000135642C04D0AF42EFD180BCB846F0BDC6
:10090000AF42FAD00024E8E7A4E70220A8E70220DB
:10091000C821044BC9011A68034B1B6804339B00B0
:1009200099507047A4E70220A8E702208021044BD9
:10093000C9031A68034B1B6804339B009950704726
:10094000A4E70220A8E702208021044BC9051A6809
:10095000034B1B6804339B0099507047A4E70220A7
:10096000A8E70220C821044BC9021A68034B1B6880
:1009700004339B0099507047A4E70220A8E70220A7
:10098000044B05491A68054B1B6804339B009950BA
:100990007047C046A4E7022000004040A8E70220BC
:1009A000F0B500281FD0104BFF261F680F4B4908D9
:1009B0001A68FF2304321B023F249C460818920049
:1009C000360408E01D000F3D092D08D863460131AB
:1009D000D351884207D023000B40092BF2D80131B4
:1009E000D6518842F7D1F0BDA4E70220A8E7022043
:1009F000F0B5C64600B5002822D0164BFF261F686A
:100A0000154B49081A68FF231B049846FF2304323C
:100A10001B023F249C4608189200360608E01D0081
:100A20000F3D092D0FD86346D3510131884207D0BD
:100A300023000B40092BF2D80131D6518842F7D15F
:100A400080BCB846F0BD1E3B092BF5D84346D351B8
:100A5000EBE7C046A4E70220A8E70220F0B5CE46A7
:100A6000474680B5002824D0184BFF261F68184B36
:100A700049081A68174B04329946FF231B0698460B
:100A8000FF231B043F249C4608189200360203E013
:100A9000D651013188420CD023000B40092BF7D9E5
:100AA0001D000F3D092D08D863460131D3518842FE
:100AB000F2D1C0BCB946B046F0BD1E3B092B02D8EE
:100AC0004346D351E5E74B46D351E2E7A4E7022082
:100AD000A8E7022000281400F0B5D6464F46464647
:100AE000C0B5002823D0204BFF261C681F4B4908A7
:100AF0001F683F223B1D9A469D00FF231B06984618
:100B0000FF231B049C460818360203E02E510131D6
:100B100088420CD013000B40092BF7D91F000A3F65
:100B2000092F09D8634601312B518842F2D1E0BC2C
:100B3000BA46B146A846F0BD14277F42B94699444B
:100B40004F46092F02D843462B51E0E71E3B092BA5
:100B500004D85346064F9B001F51D8E75346054F14
:100B60009B001F51D3E7C046A4E70220A8E702205C
:100B7000002814000000FFFFF8B5050049070FD159
:100B800000280DD00024074F074E0FF0A1FC33685A
:100B90003A68043300029B0001349850A542F4D116
:100BA000F8BDC046A4E70220A8E70220F0B5C6467B
:100BB000050000B5490717D1002815D00C4B0024BB
:100BC00098460F260B4F0FF083FC4346196803002D
:100BD0003340584243413A685B4204321B02920060
:100BE00001345350A542EED180BCB846F0BDC0469A
:100BF000A4E70220A8E702203F2110B5024B034AD8
:100C0000034807F045FEC0461C0601107C06011093
:100C100038060110F0B5D6464F464646364BC0B5AD
:100C20009846364886B0364918600AF0B1FD43460A
:100C30000700012118680AF08DFD324B050018608D
:100C4000994643461E68304B0220F1184B1E9941CD
:100C5000063105F0BFFC0123290002223000009379
:100C60000AF01AFE80235B020293FB1CFA011B03AD
:100C70001343264A052013400393254B0593254B28
:100C8000049307F05BFD0AF0C9F823490AF0A7F8BE
:100C900082460AF0EBF884B20023002C0ED020002C
:100CA0000AF0BCF8011C50460AF08FF88721C905EC
:100CB0000AF0ABF80AF0DAF8C3B21B0224043A00D7
:100CC00029001C43300002AB02940AF039FE0123D4
:100CD000AB40326881211343336043461A684B4668
:100CE0001B68890504339B00995006B0E0BCBA46E6
:100CF000B146A846F0BDC046A4E70220000020503F
:100D000078070110A8E702200000E0AFFFFFFF9F77
:100D100000080020000006400024F44A70B50400DA
:100D2000052820DC00281FD106F068FE02000B1EFB
:100D300026DB144D28686968121A8B411100002BBC
:100D400018DD114E114BE400E3580120316898473B
:100D50000F4A336812689B18336006F04FFE002973
:100D60000EDB03C570BD05240A4B1B78002BDBD0BE
:100D70000624D9E7002BF5D1074B9942F2D9E0E7D9
:100D8000FFF73AFF001D002058E602200807011077
:100D9000BC14002073E6022010270000C3001B1AB9
:100DA000DB00181A4118034B8900C91800230B8077
:100DB0008B70704700C20220F8B5040008001700CD
:100DC0001E000D0009F052FC0022954B09F0C7FBF4
:100DD0000022944B09F0E1FB02000B000020914936
:100DE00009F0ABFB09F07EFCC0B2002C01D0002D55
:100DF00005D1C3438022DBB23A703370F8BD0F2CAB
:100E00000AD8042C00D17FE0082C57D0022CF0D156
:100E100001308022C3B2EFE7FF2C18D8482C08D845
:100E2000132CE6D9143C342CE3D87F4BA4001B5977
:100E30009F46842C42D0DCD8812C25D0822CD8D15E
:100E40000B225242121A0B30D2B2C3B2D4E7802323
:100E50005B019C421ED380235B029C42C9D2734B30
:100E60009C4249D000D987E0714B9C4236D000D9D2
:100E7000A0E0704B9C423FD000D890E06E4B9C426B
:100E800002D06E4B9C42B4D10B235B421B1ADBB2E7
:100E90001A00B1E76A4B9C422ED045D8FF3BFF3B7E
:100EA0009C421BD034D8CC3B9C4225D01AD902237B
:100EB000833CFF3C9C4300D09BE7E5E7C243802393
:100EC000D2B299E78523DB009C4207D04DD95D4B18
:100ED0009C4211D05C4B9C4200D08AE70B30C3B2DD
:100EE0001A0089E7203B9C42CED01A339C4203D0A3
:100EF0001E3B9C4200D07CE70B2302005B420B327E
:100F00001B1AD2B2DBB277E701308023C2B273E79B
:100F100092239B009C42E1D017D94C4B9C428FD02E
:100F200003339C428CD064E7494B9C42ACD0C9D976
:100F3000484B9C4200D183E70FD9474B9C42A3D03A
:100F4000464B9C4200D17BE753E7303B9C4200D1AB
:100F500076E7434B9C42C1D04BE7424B9C4293D037
:100F6000414B9C4200D16BE743E7103B9C42C3D00E
:100F70003E4B9C42B2D03CE73D4B9C4200D183E7C4
:100F80002ED93C4B9C4200D15AE720D93A4B9C4287
:100F900000D179E7394B9C4200D151E729E7384B22
:100FA0009C4200D170E7374B9C42A5D0364B9C4207
:100FB000A2D01EE7354B9C4290D01FD9344B9C42A7
:100FC00000D13DE7334B9C4200D139E711E7324B6A
:100FD0009C4200D158E7314B9C4200D130E708E7F2
:100FE0002F4B9C4200D179E711D92E4B9C4200D166
:100FF00082E72D4B9C4200D170E7FAE62B4B9C42D6
:1010000000D11DE72A4B9C4200D167E7F1E6294B4E
:101010009C4200D170E7284B9C4200D15EE7E8E695
:101020000000594000C05F408807011028410000BF
:10103000482100008214000024180000421800001B
:1010400012040000810400008204000081020000FC
:1010500012080000240800004108000042080000B7
:1010600041020000140800002108000021040000D3
:1010700024810000418200001284000021840000CD
:10108000841200002814000048120000812400008F
:101090001428000041280000428100001482000052
:1010A0008142000012480000214800008421000015
:1010B000182400008241000018420000F0B5574695
:1010C0004E46DE464546824622208023E0B59BB050
:1010D0000D9110A909180B70013010A909180B7097
:1010E000013010A909180B70013010A909180B70F4
:1010F0002221137819408946112119400F9144216A
:1011000019401291D4781179240209040C43917882
:101110000C43990700D40AE1E12124020C430F9902
:10112000002902D0E02124020C431299002902D0A8
:10113000E22124020C43190700D4F0E0E323240247
:101140001C4353465046DB001B1ADB001B1A0D984C
:10115000D349844663449B00C9184B78002B01D1C6
:1011600001334B7000230025CB460020A146002709
:101170009C461C00911C10930832159314931793EE
:1011800013930E930C93119316930B9309950A9551
:101190000B78002B37D0292B00D1BDE02E2B00D1AE
:1011A000BAE0132B00D06CE101250C951E256D4291
:1011B000A84698444546EDB2342D00D921E1AD0052
:1011C000A8464646B74DAD59AF46BD002E00012595
:1011D000B540099E01372E430996FFB2372B00D147
:1011E00044E100D93CE1102B00D135E1362B00D091
:1011F00017E1A300984604234546AB4065461D43CE
:10120000AC460134E4B201319142C1D10A9A63463D
:1012100094461E0063460B9A4C46099DD946934658
:10122000002B1CD04B46002B00D187E010AA904623
:10123000232322221C21604643444244FFF7BCFD85
:10124000002E00D1CFE0222210AB9B181B78013278
:10125000984610AB9B181B781C2199468EE0002EF7
:1012600000D083E080238027994698460993002D7B
:1012700000D097E008220220012501210E9B139E39
:101280004B404E40DBB2F6B276011B013343119E58
:101290004E40F6B2B6001E43149B4B40DBB25B03DC
:1012A0003343179E4E40F6B236033343159E4E40ED
:1012B000F6B2B6033343109E4E40F6B2F603334304
:1012C0000C9E4E40F6B2B60133435E464E40F1B23C
:1012D000C9010B432B4303431343734A34211A437D
:1012E000724B16981A606B465B1800215956002302
:1012F00006930393099B049001934B465046009339
:101300000594434602970FF077F91BB0F0BCBB463B
:10131000B246A946A046F0BD01250B9546E75BB253
:10132000002B00DB0DE7E72324021C4309E79906A5
:1013300000D4F4E6E52124020C43F0E610AA90461E
:10134000232322224E21604643444244FFF734FDCA
:10135000002E48D0222210AB9B181B7801329846F1
:1013600010AB9B181B784E21994607E04B46002B8B
:1013700000D09DE080234E219946984610AA9446BD
:10138000252319AA63443000FFF716FD242210AB71
:101390009B181B780132099310AB9B181F78002D06
:1013A00000D167E710AA944627232622280064214B
:1013B00063446244FFF700FD272210AB9B181978A5
:1013C0000020CB43DBB2DB09013A119310AB9B1831
:1013D0001A78050080238B42454193424041D2094F
:1013E0004000D20049E7434622229B181B78013275
:1013F000984610AB9B181B78802799468023099349
:1014000035E7072B22D035D9162B22D01A2B00D046
:10141000E4E601258600B5400A9E01302E430A9677
:10142000C0B20F9D002D00D1EDE6129D002D00D120
:10143000E9E64C2B00D0E6E64B3B013110931393C9
:101440000C931193914200D0A2E6DFE608258600B6
:10145000E1E702258600DEE7A30098460123CBE6FC
:10146000382BDED1A30098460823C5E6A300984692
:101470000223C1E6042BD4D18500A8461D004646B0
:10148000C9E72D2B00D18FE60D2B02D101250E953A
:101490008CE6282BFAD00E2B18D10125139585E662
:1014A00000C202205C08011000070300ACE7022024
:1014B00080231C219946984660E70825BE0087E6F0
:1014C0000225BE0084E60425BE0081E62A2BE4D076
:1014D0000F2B02D101251795A3E7332B02D101254C
:1014E00014959EE7182B02D10125159599E74B2BF2
:1014F000FAD00C2B02D10125109592E74E2BFAD091
:10150000122B00D052E63F2516958AE7F0B54646E5
:10151000D6464F46C0B582B098460AAB1B78C50088
:101520009A462B1ADB001B1A524F5B189B00FA5C81
:1015300004000E00002A04D1FA185278002A00D0C4
:101540008DE02B1BDB001B1B9B199B00FB189B7862
:1015500053456CD0484B1B78002B6CD1012253466D
:101560001A4254D1454B514699461B789343022267
:101570000A4255D0134351460422DBB20A4254D0EA
:101580001343DBB24A4613700123009201930022F9
:101590000223310020000DF0BDFA52462B1BDB0068
:1015A0001B1B9B199B00FB189A702A1BD200121B55
:1015B00092199200BA18D378434522D04346002BA3
:1015C00049D007222D4B99461B7813434A46137086
:1015D00042462D1BED002D1BAD19AD007F19284D86
:1015E000FA702A789A420CD0012301934B460022CC
:1015F00000933100022320000DF08CFA4B461B783B
:101600002B7002B0E0BCBA46B146A846F0BD1B4BF9
:10161000514699461B7813430222DBB20A42A9D1F4
:101620009343514604220A42AAD19343AAE7124B9C
:101630001B78002BB9D0134B1A78072319001140DF
:101640000A41134052461A439246012253461A4217
:1016500000D187E7DBE7094A00239146B6E701227C
:10166000FA54064B01920093002202230DF052FA25
:101670009BE7C04600C2022073E6022075E6022006
:10168000C01400206EE60220F0B5C64600B582B058
:101690001F0008AB1B7804000D001600984606F0EA
:1016A000ADF9002921DB0DD0FA220023920008F0C9
:1016B00047FD114A1368C31A132B0CD802B080BC23
:1016C000B846F0BDFA21890008F0FCFC0A4A13680C
:1016D000C31A132BF2D9434610602900009332003D
:1016E0003B002000FFF712FFE8E73F21034B044ACD
:1016F000044807F0CDF8C04664D502201C0601104E
:101700003009011038060110F0B5012635001F24FC
:101710000127C64688461A4913788C461D406D42FB
:10172000A543D9085C087C407940344031404903E6
:1017300024010C43190979409B0831407B4000B5D6
:10174000890133400C43DB0165441C430D4B2C43A2
:101750001C6053780C4D41462B7095780B4AED4335
:10176000EDB21570A2B20A4C82B0247849B201944D
:1017700000950EF039FF02B080BCB846F0BDC046FF
:101780002FFF0F00ACE70220B0E70220B1E70220F4
:1017900066E60220F0B5002827D04268002A14D05F
:1017A0000021124D124C1600361BF610F3009B1947
:1017B0009F01DB19DB009B19DF03DB19DB009B19A1
:1017C000526B5B42E954002AEDD10A4B0A4AC01A17
:1017D000801043001B1819015B1819025B181904CB
:1017E0005B1800219B001B18D154F0BD682B002012
:1017F000782000206020002074200020F0B5DE4614
:101800004E4645465746E0B59146CC4AC3B09B4646
:10181000002504900591009203E00135642D00D16C
:1018200016E2535D002BF8D1009AC5490133535598
:101830000191002302E00133192B71D0CA5C002A08
:10184000F9D10124019A0021D454BE4A1B019446C7
:101850000F93634418000E9210220D9309F0ACFB15
:10186000B94B0B931B78002B60D16B005B199F0069
:10187000B64B14229C4616930B9BBC4465461C70C9
:10188000B34B002198461800149509F095FB2422CB
:10189000002130A809F090FB0C220021280009F05B
:1018A0008BFB43461C725B46002B00D168E2149B05
:1018B0005C460C93002306930993159330AB039376
:1018C00000234D46BB460A9303339A46A14B02932D
:1018D000A14B0893524629780A40022A00D1AFE171
:1018E000032A00D19EE1012A00D196E10026013CA5
:1018F0000135A4B20B0050468343642B00D1F5E1BF
:1019000000D9AEE0342B00D9A2E0032B00D841E18E
:10191000043BDBB2302B0FD808989B00C3589F467E
:101920003E218E4B8E4A8F4806F0B2FF3F218B4BF3
:101930008D4A8C4806F0ACFF0C230B4200D13CE2F0
:10194000002CC7D143461B785F46002B1BD0424674
:10195000149B00269C680D9BD9684C9B1A603DE047
:10196000099B102B00D1FDE1032A02D1039A330C0D
:101970005380099A1AA9531CDBB25200565209939C
:10198000DEE70696DCE7434605265D68149B9C6807
:101990000D9BD968002D1ED0744B00209C46744BC3
:1019A000B1461A006346A0468C4619002B009B1ACC
:1019B000DC10E3001B199E019B19DB001B19DE03E1
:1019C0009B19DB001B196D6B5B42C854002DEDD1D8
:1019D000444661464E4600230B9A1370BA10BB185A
:1019E0001D015B191D025B191D045B195B009B182F
:1019F00000220098C254002C13D08C46169D27005C
:101A00007F1BBF10BB00DB1919015B1819025B18A3
:101A100019045B185B00A468DB19C254002CEED1DA
:101A2000614600220F9B01981B11C254002907D068
:101A30000E9C0B00C9681B1B1B11C2540029F8D156
:101A4000300043B0F0BCBB46B246A946A046F0BD4C
:101A5000442B00D14DE1542B00D06DE7039B1E7346
:101A60006EE71A00743AD2B24C2A00D964E70298A1
:101A7000920082589746202203998A5C9146002A58
:101A800000D19AE1012232401092B2B21292212288
:101A90008A5C002711920A78189413924A46994654
:101AA0005B461993099B44469B460A9B22AE984687
:101AB0001795079220E0902B00D114E10223022217
:101AC000B3700C9B13999C46520062448C46538819
:101AD000338063449BB253806289111C9A4200D2C6
:101AE000191C109B6181002B00D1B7E00137079BC7
:101AF000FFB29F4200D156E1039A24AB23CA23C30D
:101B000023CA23C303CA03C3129B079AB380119B42
:101B1000B3712823F2545B46002B00D0CCE0069B27
:101B2000434504D34346B38101239C46E0444B46DE
:101B3000802BC0D100230022C2E7C0464C300020D9
:101B400044200020B41E0020742000209C2B002084
:101B500060200020780A0110B40901106409011006
:101B6000C40B01106C090110FC0B0110682B002044
:101B700078200020159B002B00D129E19968159150
:101B8000002907D0CB680E9A01989B1A00221B11DE
:101B9000C254CA60002306930A930993D0E6039BBC
:101BA00030AA934200D110E1243B0393C8E6039A84
:101BB00039AB9A4200D105E1110024310B00C1CAB2
:101BC000C1C3C1CAC1C3C1CAC1C30391B8E6159B91
:101BD000002B00D090E00D9B1A001593039B16700C
:101BE0005B885380099B002B00D01CE1069A0A9B5E
:101BF0009A4200D2EFE0159A9380CBE72123039A13
:101C0000F6B2D65443461B7B002B00D0FAE00123EA
:101C1000424613730C9B1E7092E6023C6E78A4B28F
:101C2000023567E6A8786B7800021843EB782E79C6
:101C30001B0403433606053C1E43A4B2053559E692
:101C4000AE786B783602033C1E43A4B2033551E6EE
:101C50003D21904B904A914806F01AFE32000599BA
:101C6000049800F013FF002800D13FE76368002BC1
:101C700000D1B4E000238A49079D03E00133322BF1
:101C800000D1CAE0CA5C002AF8D10120C854D900AA
:101C9000CB1A84492269DB00CB18079553631800DF
:101CA000382231001D00236109F08CF900236B6399
:101CB00023780133237019E71AAB1B88B3815B4685
:101CC000012B00D1C0E001235B429C46E3445B460C
:101CD000DAB21AAB18005200991C0EF097FB5B4663
:101CE000DBB29B4623E701230122E9E6039B9E60CA
:101CF00026E6039BDE6123E60D9B1A00DB68002BC2
:101D0000FBD10027019903E00137192F00D107E625
:101D1000CB5D002BF8D101990133CB550E9B3F01D0
:101D20009C466744D76000211022380009F044F92E
:101D3000159B3A00BB60159750E72023039AD654B1
:101D4000FEE5039B1E70FBE5039B9E61F8E5039B8C
:101D50005E61F5E50A96F3E5039B1E61F0E5039BE2
:101D60005E80EDE55F46042643461B78002B00D1DC
:101D700009E643465D68149B9C680D9BD96809E69B
:101D80005A460B9B05261A70BA10BB1819015B182E
:101D900019025B1819045B1859465B009B18009ADE
:101DA000D15400213DE6199BA0469B460023179D78
:101DB000189C06930A930993C2E50023099306939E
:101DC0000A93BDE55F460126CEE75F460226CBE7D4
:101DD0005F460326C8E7002306930A93B0E530491F
:101DE000079D02E00133322B17D0CA5C002AF9D1DB
:101DF0000132CA54DA002B49D31ADB00CB180795FD
:101E000063604CE7149B03E09A68002A1FD013001C
:101E10001A78B242F8D10C93F9E640211D4B224AC0
:101E20001E4806F035FD1AAB1B889380099B012BD9
:101E300000D1AFE61A00013A1AABD2B21800520034
:101E4000991C0EF0E3FAA5E600239B4647E70C93A6
:101E5000434642461B7A01331372002303E00133E9
:101E6000642B00D1F4E6009AD25C002AF7D10099E5
:101E700001325F00CA54FF18169BBF009C460C9BA2
:101E80006744002138009F600B3209F095F80C97E9
:101E9000BDE6C04664090110E00B01106C09011099
:101EA000682B002078200020AC0B0110F0B5C6464E
:101EB000030000B5002A25D0947900209C421ED151
:101EC000D66A177A166300261388D662002F15D0BB
:101ED00007208046063801248446FF18BFB24546D5
:101EE000D808085C1D4028416546054201D02643BC
:101EF000D66201339BB264009F42F0D1012080BCC6
:101F0000B846F0BD0020FAE7002070479A234B4303
:101F10002549264A484318180023111883540800FD
:101F200000221C30027108002430027108002C309D
:101F300002716C30027060380272438102704B8013
:101F400008308B80CB800A724B818B81CB810A74E5
:101F50004B828B82CB820A764B838B83CB834B84E1
:101F60008B84CB844B858B85CB854B864B870272CC
:101F70004381027443824383027602308277038472
:101F800008308277038408308277038408308277B0
:101F90000384083082770384083082779231038487
:101FA000083082770B807047162100007CFB0120EF
:101FB000F0B557464E464546DE460023E0B59DB097
:101FC00018AE05000C0017000021102230009946C1
:101FD0000B930C930D930E930F9308F0EDFFE04BD2
:101FE000E04A98469A236A4363439B184246D218B4
:101FF00052889246FF2A00D875E34246D35C504689
:102000009B4607F0FFFF5B46FA5CFB185B78120209
:1020100013435246134003419BB299469A23D14A37
:1020200063436A439B1843445A899246FF2A00D867
:1020300051E31B7A10009B4607F0E4FF5B46FA5C15
:10204000FB185B78120213435246134003419BB2C4
:102050000B939A23C34A63436A439B1843445A8AA7
:102060009246FF2A00D82EE31B7C10009B4607F007
:10207000C9FF5B46FA5CFB185B78120213435246B9
:10208000134003419BB20C939A23B64A63436A43BD
:102090009B1843445A8B9246FF2A00D80BE31B7EC1
:1020A00010009B4607F0AEFF5B46FA5CFB185B78BE
:1020B000120213435246134003419BB20D939A23DD
:1020C000A84A63436A439B1843445A8C9246FF2AAA
:1020D00000D8E7E220331B7810009B4607F092FF00
:1020E0005B46FA5CFB185B781202134352461340BE
:1020F00003419BB20E939A239A4A63436A439B1807
:1021000043445A8D9246FF2A00D8C2E228331B78F6
:1021100010009B4607F076FF5B46FA5CFB185B7885
:10212000120213435246134003419BB20F939A236A
:102130008C4A63436A439B1843445A8E002A10D04A
:1021400030331B788849FB5C1A40131C082A00D9DD
:10215000D6E20F20DBB2CA5C3378024083431343DC
:1021600033709A237F4A63436A439B1843441A009F
:10217000383212785B8FBA5C134200D0BDE2002186
:1021800000239A22774862436843121842441000A1
:10219000403000784232385C1288024202D002227B
:1021A000012113439A226F48624368431218424444
:1021B0001000483000784A32385C1288024202D05F
:1021C0000422012113439A2266486243684312188D
:1021D00042441000503000785232385C128802427B
:1021E00002D00822012113439A225E4862436843C9
:1021F000121842441000583000785A32385C128865
:10220000024202D01022012113439A225548624310
:102210006843121842441000603000786232385C23
:102220001288024202D02022012113439A224D48F3
:1022300062436843121842441000683000786A32E2
:10224000385C1288024202D04022012113439A22B4
:1022500044486243684312184244100070300078CA
:102260007232385C1288024202D08022012113436C
:102270009A223C4862436843121842441000783066
:1022800000787A32385C1288024203D08022012121
:10229000520013439A22334862436843121842445F
:1022A0001000803000788232385C1288024203D0FD
:1022B00080220121920013439A222A4862436843F4
:1022C0001218424410008830007893463A5C8A2005
:1022D0008446DC4460460088104200D118E2802128
:1022E000C9000B4359465A46903109789232795CBD
:1022F00012880A4202D08022120113430F22318831
:102300001B010A40134333809A23164A63436A43EE
:102310009B1843449A88DB881B041343802209924C
:10232000002B0BD05908894500DD2BE24B46D80124
:10233000C01A07F09FFE0130C3B20993099B094AF6
:10234000B3709A236A4363439B1843449A89DB8999
:102350001B04134380220A92002B13D006E0C046D0
:102360007CFB012016210000080D01100B9A590872
:10237000914200DA0FE2D001801A07F07BFE0130B3
:10238000C3B20A930A9BDF4AF3709A236A436343FA
:102390009B1843449A8ADB8A1B04134380220B92C6
:1023A000002B0BD00C9A5908914200DAFBE1D001C6
:1023B000801A07F05FFE0130C3B20B930B9BD14A2A
:1023C00033719A236A4363439B1843449A8BDB8B94
:1023D0001B04134380220C92002B0BD00D9A59083A
:1023E000914200DAC6E1D001801A07F043FE0130C5
:1023F000C3B20C930C9BC34A73719A236A43634321
:102400009B1843449A8CDB8C1B0413430AD00E9A0E
:102410005908914200DA9DE1D001801A07F02AFEA6
:102420000130B0719A23B74A63436A439B1843440F
:102430009A8DDB8D1B04134300220D92002B0CD0D0
:102440000F9A5908914200DA8CE1D001801A07F006
:1024500011FE0130C3B20D93F371691E8A00531847
:10246000A9481B191B01C3181F68B946189FB94515
:1024700000D15BE1521812191201310080181022AC
:1024800008F0A0FD9A239F4A63436A439B18434484
:1024900098331B789A465146338852461B090C29BB
:1024A00000D90C2201200700D2B2911E8F40013AC0
:1024B00090403900194003405A1E9341DBB29946BF
:1024C00033784F1EB941DA06D20F0E925A06DB0955
:1024D00010935346C9B2D20F11910F92062B00D818
:1024E0002BE151467378DA07D20F072900D173E147
:1024F00050469907C90F082800D17BE15746580775
:10250000C00F092F00D156E1DF06FF0F11979F067C
:10251000FF0FB9460127B84647467A40D2B2920328
:10252000129242465140C9B2CA03139242465040E9
:10253000C0B20202149242461B07DB0F5340DBB2CB
:102540000F9A5B029C460E9B0E92109A10930F926C
:102550006E4B327898460123190091438B46012037
:1025600049467778414015975F46C9B2C90139435A
:10257000970847401F40BF003943D70847401F40D6
:10258000FF003943570847401F4052097F0042402F
:1025900039431A40159F52010A43B9094140194075
:1025A0007BB2DB430904DB0F11435B0419430023B7
:1025B00099468B464A46514605338B42524159460D
:1025C000D3021943129B109A1943139B424019439B
:1025D000149BD2B21943634619430E9B52034340E6
:1025E000DBB21B010B4313430F9A4F464240D2B25A
:1025F00012031A43119B24374340DBB29B011A4359
:102600008023DB001A4343461A60099A0EABDB199C
:102610001A7025220A9B0EA989185B420B7026238B
:102620000EA9C9180B9B0EAA0B700C9917A84B4248
:102630002721521813700EAA9446272326222521FB
:1026400063446244614403F025F90EABDF193B7823
:1026500047463A684F46069705970D9F61B2049723
:10266000B079272626240EAF0390BE1930783C1986
:1026700002902078019025203818007800902800DA
:102680000DF0BAFF1DB0F0BCBB46B246A946A0464D
:10269000F0BD002A00D14AE528331B78FB5C1A40C4
:1026A0000F9244E5002A00D125E520331B78FB5C1E
:1026B0001A400E921FE5002A00D100E51B7EFB5C4C
:1026C0001A400D92FBE4002A00D1DDE41B7CFB5C88
:1026D0001A400C92D8E4002A00D1BAE41B7AFB5CC1
:1026E0001A400B92B5E4002A00D197E44246D35C2D
:1026F0005246FB5C1A40914690E40121012340E5DB
:10270000082326E516210000081D0020ACE7022062
:1027100058465A46903000789232385C128802420D
:1027200000D0E8E5002900D1EEE5E7E55B689C46CE
:1027300073689C4500D09DE6A4E780239B009C46DF
:10274000013BFF3B149380231B0213938023DB0187
:102750001293FDE6521AD001801A591A07F0B2FC02
:1027600080305EE6521AD001801A591A07F0AAFC8E
:1027700080306FE6521AD001801A591A07F0A2FC75
:10278000803035E64A46521AD001801A591A07F0AD
:1027900099FC8030D0E5521AD001801A591A07F0FE
:1027A00091FC8030ECE5521AD001801A591A07F0DA
:1027B00089FC803000E601235A4059404340DBB297
:1027C0001B0214938023D2B29203C9B212929B00CF
:1027D000CA039C461392BBE6012353409B0312930A
:1027E00080239B009C46013BFF3B149380231B02EC
:1027F0001393ADE601235A404B40DBB2DB03139346
:1028000080239B009C46D2B2013B9203FF3B129275
:1028100014939DE6F0B557464E46DE464546E0B574
:102820007D4B89B01B6803915C6802900700A0791A
:1028300007AE03005A1E9341DB009B460023019321
:10284000764B0A009946764B390098469A235A43AC
:10285000744B4F46594313008C46634443449A4695
:102860000492059119E0092913D1217B481E0B28F8
:102870000BD80498063184460598C9006144844603
:1028800040466144425441444B80019B0133DBB2DA
:102890000193646B002C29D0A079237A31009946EA
:1028A0003B7825883370002801D006AB591D2200E3
:1028B000FFF7FCFA0028ECD04B461021C91A5A4BFE
:1028C0005D440B410721EAB20D4051460020AB4068
:1028D0009931087061899BB2D2080129C3D1A189BD
:1028E0003929D6D85148890041588F469A23039AEE
:1028F000029953434B4A4A439B184344019A9833E5
:102900001A7009B0F0BCBB46B246A946A046F0BD5D
:102910009A23039A02995343424A4A439B1801223D
:10292000434499331A70B4E79A210398029D4143B6
:102930003C486843091841440800303002704B8617
:10294000A7E79A23039A02995343364A4A439B18AE
:102950000222434499331A709BE79A210398029DFF
:1029600041433048684309184046425441444B8033
:10297000A38B8B80E38BCB808BE79A210398029DFE
:10298000414328486843091841444B81A38B0A728C
:102990008B81E38BCB817CE79A210398029D414395
:1029A00020486843091841444B82A38B0A748B82E8
:1029B000E38BCB826DE79A210398029D414319482E
:1029C00068430918414408004B84A38B20308B8452
:1029D000E38B0270CB845CE79A210398029D41430C
:1029E000104868430918414408004B85A38B2830E0
:1029F0008B85E38B0270CB854BE79A210398029D70
:102A0000414308486843091841444B83A38B0A7625
:102A10008B83E38BCB833CE7B4E7022030110110BA
:102A20007CFB012016210000FFFF0000140C0110A8
:102A300070B5134E82B0009604000D00FEF7DEFE66
:102A4000002818D03068FEF7A5FE9A2100230D4A11
:102A50006943624333600C4B891859180B00983353
:102A60001B780020002B04D099310878434258414C
:102A7000C0B202B070BD29002000FFF7CBFEE1E735
:102A8000B4E70220162100007CFB01209178002988
:102A900021D15089012804D0093843425841C0B29D
:102AA00070479389352B08D82F2B16D804229343CF
:102AB000023B5A425341D8B2F2E7392B04D83720AF
:102AC000984280414042EBE70322903B9BB29A42FE
:102AD0004941C8B2E4E70020E2E70120E0E7C04650
:102AE0000A4B020000209A4200D07047C4239B0189
:102AF000994208D0064B9C460223614489B28B421E
:102B00004041C0B2F1E70120EFE7C046C82D000008
:102B1000FBCEFFFF70B5022204000D000079097999
:102B200002F0AAFE00280AD00126691C0422601CBB
:102B30000DF04AFC3043431E9841C0B270BD0222E2
:102B40006979607902F098FE0028EDD10222A97916
:102B5000A07902F091FE0028E6D10222E979E0791D
:102B600002F08AFE0028DFD10222697A607A02F040
:102B700083FE0028D8D10222297A207A02F07CFE36
:102B80000600D2E7F0B5DE4657464E464546E0B56C
:102B900006009BB017AC0891200011000A2208F033
:102BA00011FA731E9A008B4FD0184000210038187C
:102BB00098460992FFF7AEFF002800D1F2E0082105
:102BC00063788C4619400B911021194002200C911A
:102BD000402102000D001A401D400A920D95A57873
:102BE000AA4605400E9555461E3005405046084001
:102BF0000F951090554604200540E1781840524644
:102C00001195654613900E2015401295084200D18B
:102C1000CFE00F200140C81F0200501E82411592D4
:102C2000002900D0CBE00222E17814920907090FB5
:102C300001200500684A9D4391462A0193460A9D5A
:102C40005BB26A426A415D4652011543AC460C9D37
:102C5000DB436A426A41654612031543AC460B9D4D
:102C6000DB0F6A426A41654652031543AC460D9D2F
:102C70005B026A426A41654612022A431A4353467E
:102C800098430E9B8003024358424341DB031343A6
:102C9000119A50424241D2011A43129B5842434179
:102CA000DB0113430F9A5042424112041A43109B16
:102CB000584243415B041343139A504242419202EB
:102CC0001343159A0F201343149A1A430B0094468A
:102CD00002220D3303400B319A429B41084082424D
:102CE000924165465B429B005242D2002B43134304
:102CF0004A462021136023790EAA52181370637973
:102D0000FF22002B01D05B42DAB221210EAB5B180F
:102D10001A70A3790EAA013152181370E379FF22B9
:102D2000002B01D05B42DAB223250EAB5B191A707F
:102D3000637A0EAA9A46237A94469B46222223233C
:102D4000212163446244614416A802F0A3FD2022BD
:102D5000202069460EAB9B1809184A4600201268CD
:102D600009781B78069005905846049050460390C9
:102D70000EA840190078013D02900EA84019007875
:102D8000013D01900EA84019007849B20090300032
:102D90000DF032FC099D0A2245446D00210078198E
:102DA00008F010F91BB0F0BCBB46B246A946A046DD
:102DB000F0BD002201300140159200D133E703201D
:102DC000E1780907090F884280414042420014928D
:102DD0002EE7C04660C80220ACE70220084A002364
:102DE000904201D018007047064B994206D0064B1E
:102DF0009C4661444B425941CBB2F3E70123F1E7D2
:102E0000C82D000006500000FCCEFFFFF0B54E4676
:102E1000DE4645465746E0B599B016AC05000A9027
:102E20000B9120001100072208F0CCF8814B6E1E98
:102E30009946F500A81B0722210048440DF0C4FA6A
:102E4000002800D1DEE0082738002378022118404E
:102E50008346102018400C9040200A001840099327
:102E60000D901A406378180008400E9004209A468E
:102E70000340A1780F9353463B401093099B1840A1
:102E800011900E20084200D1C3E00F200140C81F5E
:102E90000300581E83411293002900D0BFE0022393
:102EA000A17813930907090F0120099B624F9843EA
:102EB0004301504242410220120113430A00984646
:102EC0000F2384460B321A409445924143465242A6
:102ED000D200134398465B465A425A414346520336
:102EE000134398460C9B22305A425A4143461203E0
:102EF000134398460D9B0D315A425A414346920363
:102F00001A436B461B181B7850465BB2DB43DB0F42
:102F1000DB031A43012383430E981B021A434342E7
:102F200043410F985B021343424242411098920181
:102F30001A43434243411198DB0113434242424149
:102F4000920213430F2211400D3A94461298C02268
:102F500003431398920203438C458041242140424D
:102F60008000034313433B60E3780CAA52181370AC
:102F70002379FF22002B01D05B42DAB225210CAB72
:102F80005B181A7063790CAA013152181370A37977
:102F9000FF22002B01D05B42DAB227230CA9C9180B
:102FA0000CAB9C460A700B0026222521624461442A
:102FB00015A802F06FFC24210CAA52182C20694697
:102FC00009180020137809783A6806900590049053
:102FD00003900CAF27303818007849B202903800BF
:102FE0002627C0190078013F01900CA8C01900786D
:102FF00000900A980DF000FBA81B0722210048440E
:1030000007F0E0FF19B0F0BCBB46B246A946A046A7
:10301000F0BD002301300140129300D13FE70320AF
:10302000A1780907090F8842804140424300139369
:103030003AE7C04694C80220ACE70220054A0023C4
:10304000904204D13939FF394B425941CBB2180073
:103050007047C0460D0F0000F0B54E464546DE46AF
:103060005746E0B58FB00CAC060009912000110066
:10307000072207F0A7FF574B751E9946EB005F1B11
:103080004F440222E178F878984602F0F5FB0028D8
:1030900000D175E00222637821789B4613409C465C
:1030A00004230A400B400E21A078014258D00F2182
:1030B0000140C81F0700781E87410A97002955D193
:1030C0000220A1780B900907090F58424341504252
:1030D00042411B01520113430A000F200B3282466A
:1030E00002400D38904292415242D2001A435F464C
:1030F0000123BB4367469B0113437A427A41D201C5
:1031000013430A9A0D3113430B9A1343524611404D
:10311000884292415242920013432F4A24211A437B
:103120002E4B30001A606B465B1800215956002365
:1031300006930593049303938033029301930093C2
:103140000DF05AFA4346581B07222100484407F065
:1031500039FF0FB0F0BCBB46B246A946A046F0BD51
:103160000F21014000200A900029A9D00320A17856
:103170000907090F88428041404240000B90A4E7B4
:1031800002222179387902F077FB002800D081E70C
:1031900002226179787902F06FFB002800D079E78C
:1031A0000222A179B87902F067FB3A7823789A4233
:1031B00006D00123002B00D06CE70028C9D069E7B6
:1031C0007A7863789A42F4D1BA78A3789A42F0D1A7
:1031D0000023EFE7B8C8022000FF0300ACE702209D
:1031E000054A0023904205D1044B9C4661444B4262
:1031F0005941CBB2180070477E050000C9FCFFFFA3
:1032000070B584B005000E001C0004F0F7FB002927
:103210002ADB24D0FA220023920006F091FF154AFF
:103220001368C31A132B18D9134B10601A78A242D3
:1032300013D011221C700292621E944102ABE4B2C0
:103240005C709C70DC701C710423009305331122A8
:10325000310028006B440BF0C7FC04B070BDFA21AC
:10326000890006F02FFFDAE73F21044B044A0548A6
:1032700005F00EFB68D5022077E602201C0601103F
:10328000540D011038060110F0B5C646D400A4183C
:103290000B19071905000E0000B5022219793879BB
:1032A000984602F0E9FA00280DD0012701343119BF
:1032B000281903220DF088F83843431E9841C0B204
:1032C00080BCB846F0BD434602225979787902F0B5
:1032D000D3FA0028E9D1434602229979B87902F05D
:1032E000CBFA0028E1D143460222D979F87902F0DD
:1032F000C3FA0028D9D143460222197A387A02F05B
:10330000BBFA0028D1D14346787A0222597A02F0DA
:10331000B3FA0700CAE7C046F0B5DE4657464E4648
:103320004546E0B595B00AAF81460C003800110063
:10333000252207F047FE3B78212B06D015B0F0BCC4
:10334000BB46B246A946A046F0BD4B469422013B7F
:103350005A430025634B93469C46E6000893361972
:10336000EB00B6005B19FA18361992465E445278A3
:103370006644B04612093E00002A1BD1E200121931
:10338000920012199B18089A5B44944663445B7838
:103390001B0900D08CE025239C46013509360134F9
:1033A000E044042DCAD0EB005B19FA18924652781B
:1033B0001209E3D039004046EAB2FFF765FF002862
:1033C000E9D053460121DA78D307DB0F4B40DBB25B
:1033D000DB019C465346099262469B785806C00F13
:1033E0004840C0B280001043DA094A40D2B21043CC
:1033F000DA06D20F4A40D2B2D20010439A06D20F58
:103400004A40D2B2520010439A07D20F4A40D2B279
:1034100052011043DA07D20F4A40D2B212011043D0
:103420001A07D20F4A405B07D2B2DB0F52034B4060
:103430001043DBB2099A1B0303431007C00F484037
:10344000C0B2800303435007C00F92074840D20F19
:10345000C0B24A40C003D2B2034392011343224A8E
:103460001A43224B1A60337A181C252B33D9717AF0
:10347000C0B20B1C25292CD93179263B8A46002164
:103480002638DBB2C0B20691059103900493F3791C
:1034900048460293B37969B2019373790093534616
:1034A0000DF0AAF840462522390007F08BFD72E79F
:1034B00021004846FDF714F943465A46981A4A46F1
:1034C00094235343943B25223900C01807F07AFD1A
:1034D00061E72623D0E72620717AC0B20B1C25298C
:1034E000CAD8F6E7C4CC022000070300ACE70220EC
:1034F000044A0023904203D1C1394B425941CBB217
:10350000180070470D0F000070B502780B780400AA
:103510000D009A4209D001260222E978E07802F0F3
:10352000ABF900280BD0012070BD42784B789A424D
:10353000F1D182788B7800269A42ECD1ECE7022216
:103540002979207902F098F90028ECD102226979D2
:10355000607902F091F90028E5D10222A979A079D9
:1035600002F08AF93043C0B2DEE7C046F0B5454606
:10357000DE4657464E46E0B505009BB018AC0990B4
:103580000A9120001100072207F01CFD2B00013BCF
:10359000884EDF00F81A210030189846FFF7B4FF74
:1035A000002800D1ECE008212378894619400C91CD
:1035B00010210D001D400D95202502221D400E9565
:1035C000402594461000023293461D401A400B924B
:1035D0000F9565781840AA465D46524615401095ED
:1035E0004D461540119565461540129555460E22DB
:1035F0000D401395A1780A4200D1C8E00F22114076
:10360000CA1F551EAA411592002900D0C6E0022209
:10361000A17814920907090F0B9D674A91466A42E7
:103620006A410500684268411201400102430120DD
:1036300005009D436D032A430B920C9A5BB25542E1
:1036400055412A0315000B9ADB431543AC460D9DEB
:10365000DB0F6A426A41654692031543AC460E9DF4
:103660005B026A426A416546D2031543AC460F9D30
:103670006A426A41654612022A431A4353469843F6
:10368000129B800110435A425341109ADB011843A8
:1036900053425A411304119A034350424241520487
:1036A0001A43139B584243419B021A43159B022025
:1036B0001A43149B13439C460B000F220D331340F7
:1036C0000B310A4098429B419042804165464A46F0
:1036D00024215B429B0040422B43C0000343136004
:1036E000E3780EAA521813702379FF22002B01D021
:1036F0005B42DAB225210EAB5B181A7063790EAA11
:10370000013152181370A379FF22002B01D05B42C4
:10371000DAB227250EAB5B191A700EAA944627233E
:103720002622252163446244614417A802F0B2F8BE
:103730002422282069460EAB9B1809184A4600200F
:103740001B781268097806900590049003900EA8E3
:1037500040190078013D02900EA840190078013D03
:1037600001900EA84019007849B2009009980CF019
:1037700043FF4346FF1A07222100F01907F022FCFD
:103780001BB0F0BCBB46B246A946A046F0BD013214
:10379000114000221592002900D138E703229446F7
:1037A000A1780907090F8C459241524252001492A8
:1037B00032E7C046DCC80220ACE70220044A0023FE
:1037C000904203D192394B425941CBB21800704715
:1037D0000D0F000070B502780B7804000D009A42BE
:1037E00009D001260222E978E07802F045F80028A5
:1037F0000BD0012070BD42784B789A42F1D182788B
:103800008B7800269A42ECD1ECE7022229792079C4
:1038100002F032F80028ECD102226979607902F0D6
:103820002BF80028E5D10222A979A07902F024F82A
:103830003043C0B2DEE7C046F0B557464E46DE46DE
:103840004546E0B506000D0097B014AC1100089095
:10385000771E0722200007F0B5FBBB009A46DB1954
:10386000D800C01AEB0009935B1BC0187A4B2100EB
:1038700099464844FFF7AEFF002800D1D3E0082660
:10388000227804231640B346102616400B962026B5
:1038900016400C9640260221164013400A930D96BE
:1038A000667808000E960E400F960E26A1781040FE
:1038B0000E4200D1BEE00F263140CE1F731E9E4146
:1038C0001096002900D0BCE00226A17811960907C5
:1038D000090F624EB0460A9E734273410600704261
:1038E00070411B014001034308000F260B300640C6
:1038F0000220B042B6417642F60033430126964399
:10390000760333430A935B465E425E4133031E00F7
:103910000A9B52B21E43B4460B9ED243734273417C
:1039200066469B031E43B4460C9ED20F73427341FE
:103930006646DB031E43B4460D9E5202734273413A
:1039400066461B023343134301220E9E0D31B243E0
:103950000F9E9201134372427241D2011343109A97
:103960001343119A13430F22114088428041C12210
:103970004042800092020343134342461360E378BF
:10398000FF2B01D00133DBB224210AAA5218137095
:1039900023790AAADB430131521813706379FF2B94
:1039A00001D00133DBB226260AAA92191370A3793B
:1039B0002722DB430AA989180AAA94460B700B0038
:1039C000262161440A00252113A8614401F062FF09
:1039D00024210AAB00205B1841461B780A689C46EC
:1039E00006900590049003900AAB27301B181878B6
:1039F0000AAB02909B1918780AAB019025201B187E
:103A0000187869B26346009008980CF0F5FD099BA0
:103A10002100581B3B005344DA00D31AC018072278
:103A2000484407F0CFFA17B0F0BCBB46B246A946EF
:103A3000A046F0BD0136314000261096002900D185
:103A400042E70326B446A1780907090F8C45B64121
:103A50007642760011963CE700C90220ACE70220CE
:103A6000054A0023904205D1044B9C4661444B42D9
:103A70005941CBB2180070476D040000F53DFFFFBF
:103A8000F0B5DE4657464E4645461400E0B599B0BF
:103A900016AB060005220B900C911800210007F0D0
:103AA00091FA2B212378701E984663780CAA9946C8
:103AB000A3780A90099352181378804A2C269346CB
:103AC000820011180D925A4618005518EA784F4690
:103AD000504082460CA8801900782E7984464640D2
:103AE0005846415C4046091A481E81416878524652
:103AF000C01B471EB8410843A978099DD209491B3C
:103B00004D1EA94101430120304008431043C0B27B
:103B100000280DD151467F220A403E2131400A4300
:103B200006D119B0F0BCBB46B246A946A046F0BDCE
:103B3000202119400E914021194065460F91022124
:103B40000D401095654602310D40119565460431D2
:103B500010220D4061461000114042461840129557
:103B60001391FF2A02D00132D2B29046E178242488
:103B70000CAA1219444614704A462525D2430CACAF
:103B8000641922700CAA9046099A2624D243444410
:103B9000227080220235454409072A70723A090FC3
:103BA0001A4200D185E00F221A40D61F37007E1E30
:103BB000B741BA460226B046002A05D003228A42FF
:103BC00092415242520090460E9F424242417842F8
:103BD00078411201400102434046674602430120FA
:103BE0005BB2DB43B84340031043DB0F119A1B0366
:103BF000184353425A41129B920302435842434195
:103C00001398DB03134342425041C2011A43109BF5
:103C10002B4E584243419B011A430B000F200D339A
:103C2000844603400D3898429B415B429B001343FE
:103C300062460B3111408842804152464042C000EA
:103C4000034313431F4A134333600F9B002B03D0DE
:103C500080232370099B2B700CA8844625212B0000
:103C60006144220015A801F015FE69463020242287
:103C7000091800200CAB9B181B7832680978069055
:103C8000059004900390287849B20290207825246A
:103C900001900CA80019007800900B980CF0ACFC77
:103CA0000A9A0D9B16A998185844052207F08AF91C
:103CB00037E700260132B2461A407BE7B0C902203E
:103CC000ACE7022000070300074A0023904201D01E
:103CD000180070470A00273A0133012AF8D924391D
:103CE0004B425941CBB2F3E7A30C0000F0B5DE46DE
:103CF00057464E4645461400E0B505008FB00722F2
:103D00000A900B910CA8210007F05CF9E3782522BA
:103D10009A462B00013B984604AB9B18544A262632
:103D2000934642461B78D700B81A1A0004A989198D
:103D300056465844457924796A400992097882792F
:103D40005D404A409146C278ED09921B1600721EF2
:103D500096410279121B501E8241012032434E4689
:103D6000304002431F2048458041404210432843D1
:103D7000C0B200280DD17022099802401E203040A8
:103D8000024306D10FB0F0BCBB46B246A946A046DE
:103D9000F0BD00229146484601261F328A4240412A
:103DA0005246B44652B2D24366464D46D20F5200F6
:103DB000C00110439A09013572402A405201104354
:103DC0005A0972402A40120110435AB2D243D20F0C
:103DD0005203024360461B0943402B401B0313431D
:103DE0002A008A43920313434A0842402A40D203DE
:103DF00013438A0842402A4012021343CA08424031
:103E00002A40520213436246090951407E2229404A
:103E100089010B43A24289415245924164B2494211
:103E2000E44352420B43D2001343C122E40FA400E7
:103E3000234392021A430F4B2C211A606B465B18E6
:103E4000002159564B460693059304930393803300
:103E50000A980293019300930CF0CEFB4346FF1A9D
:103E60003800072258440CA907F0ACF88AE7C0468E
:103E7000CCC90220ACE70220054A0023904205D1BC
:103E8000044B9C4661444B425941CBB218007047E9
:103E90004C05000098FDFFFFC3001B1ADB00181A39
:103EA000024A034B401840001A52704700FFFFFFC0
:103EB000BCF10120F0B54746CE46904680B591B0A2
:103EC00003AC05000F00312220003A491E0007F024
:103ED00079F84346042B34D8374B43445978374B51
:103EE00049001B78C9B2A172002B48D1002E04D022
:103EF000C0235B006380324BA380EA00531BDB00CE
:103F00005B1B3048DB195B00C45CB44203D1C318AF
:103F10005B788B4249D03023521BD200521BD219FE
:103F200052008654801841700093233B01223900CF
:103F300028006B440AF058FE11B0C0BCB946B04628
:103F4000F0BD214A1C4B9446E281DF22997A9146CA
:103F5000002323736374A375E3764B462020E27439
:103F60006377624643464900C9B2A1722075228335
:103F7000A0770133BAD0114B1B78002BB6D0134B6E
:103F80001E211B780720DA431840D2B21940A172D3
:103F90002073E373A27360742375E274A075637673
:103FA0002276E076A3776277A0E7044B1B78002B9C
:103FB000C2D0B0E7140E01101006011073E6022003
:103FC0008080FFFFBCF10120DF2000006EE60220B0
:103FD000042300B583B00193034BF4220093032321
:103FE0000AF098FD03B000BD100E011070B502225A
:103FF00005000C004079497901F03EFC002801D011
:10400000012070BD0222A179A87901F035FC0028B9
:10401000F6D10222E179E87901F02EFC0028EFD1F7
:104020000222217A287A01F027FC0028E8D1022216
:10403000E17CE87C01F020FC0028E1D10222217D16
:10404000287D01F019FC0028DAD10222617C687C0D
:1040500001F012FC0028D3D10222A17CA87C01F03F
:104060000BFC0028CCD16A7863789A42C8D1AA7830
:10407000A3789A42C4D1EA78E37800209A42BFD16B
:10408000BFE7C046F0B54546DE4657464E46E0B56A
:10409000137804000D009FB0012B06D01FB0F0BCB8
:1040A000BB46B246A946A046F0BD0DAE511C30003D
:1040B000432206F087FF631E9846684B42229946CA
:1040C00043465B0118004044400040444844099383
:1040D0000300B25C423331001A70FFF787FF0028FB
:1040E000DCD02021737904AA52181370B3790131FE
:1040F000DB4304AA52181370F379013104AA521851
:104100001370337A0131DB4304AA521813707378A9
:104110000893B378727CF77C1900101CBA4200D265
:10412000381CC3B20A93B27C377D101CBA4200D24D
:10413000381CC3B20B93089B494A1F09BB469246E1
:10414000F27801275B465042424101207B40034008
:1041500092021A43089B9B087B4003405B041A436E
:10416000089B9B097B4003409B001A4394466B4687
:1041700020229B181B7862465BB2DB43DB0FDB001F
:104180001A43089B5B097B4003405B001A438B0981
:104190007B4003405B011A434B097B4003401B01FA
:1041A0001A434BB2DB43DB0F5B031A430B097B4023
:1041B00003401B031A4303008B431B021A434B08A3
:1041C0007B4003405B021343020008998A4392013B
:1041D0001343CA087A400240D20113434A087A4086
:1041E000024012041A43C0231B02134352461360B9
:1041F00004AA944623232222212163446244614479
:104200000CA801F047FB202104AA521813780020C3
:10421000524669B223251268069005900B980490C7
:104220000A98039004A840190078013D029004A860
:1042300040190078013D019004A8401900780090D1
:1042400020000CF0D9F90998432240444000404432
:104250003100484406F0B6FE20E7C04600CA0220FE
:10426000ACE70220154B984214D0154B984208D069
:10427000144B984217D1144BC81843425841C0B24E
:1042800070475E2904D0EE394B425941C8B2F7E776
:104290000120F5E70D4B9942FAD00D4BC818434267
:1042A0005841C0B2ECE70B4B984205D10A4BC818F5
:1042B00043425841C0B2E3E70020E1E74C0500006B
:1042C0000D0F00004F1F0000FEEFFFFFCC090000A4
:1042D0003CFAFFFF32150000FFFBFFFFC3001B1A73
:1042E000DB00181A024A034B401840001A5270476C
:1042F00000FFFFFF50F40120F0B5C64605000E0098
:1043000000B502220978007801F0B6FA002821D021
:1043100001239846311D281D02220CF055F831006A
:1043200004002800B379AF7903225F4023312330A2
:104330000CF04AF87B081F4301231F4043461C43EF
:10434000631E9C413C430443631E9C41E0B280BC1D
:10435000B846F0BD02227178687801F08DFA002825
:10436000D6D10222B178A87801F086FA0028CFD100
:104370000222F178E87801F07FFA0028C8D1022201
:10438000F179E87901F078FA0028C1D10222317A76
:10439000287A01F071FA8046BCE7C046F0B5454680
:1043A000DE4657464E46E0B5137804000D00A1B036
:1043B000012B06D021B0F0BCBB46B246A946A046B0
:1043C000F0BD16AE511C3000262206F0FBFD262063
:1043D000964B621E9B460323504309925844B27980
:1043E000817992080B409200134331008371FFF7EB
:1043F00083FF0028DED010233279994613400A93B8
:1044000020234021180098460B00022710400B90F3
:1044100013409C4673791F400C9704271F400D974B
:1044200008271F400E974F461F400F9747461940D9
:104430001F4010971191B17912910E21114200D0B5
:10444000EDE00020013111401390002900D0DBE0A5
:104450000220804631790907090F6046744F52B235
:10446000BA4647424741380184460B9FD2437842BF
:104470007841674640010743BC460A9FD20F784205
:1044800078416746400338431203104301220C9FD2
:1044900094469A4392030243784278410D9FC003A9
:1044A00010437A427A410E9F1202024378427841C9
:1044B0000F9F400210437A427A41109F92010243BB
:1044C00078427841119FC0015BB21043DB437A42CE
:1044D0007A41DB0F120402435B041A4363461298CD
:1044E00083439B021A43139B0F201A4343461A43EC
:1044F0000B000D33844603400D3898429B415B42CC
:104500009B00134362460B31114088428041524662
:1045100024214042C0000343136033780CAA521890
:10452000137073782520DB430CAA12181370B3782C
:1045300001300CAA12181370F3780130DB430CAA77
:1045400012181370F3790CAA9846337A9446994658
:10455000262227230F00023860440100634462448E
:1045600015A801F097F90CABDB191B781A006D3A0E
:10457000262A03D880230CAAD219137025210CAA4D
:104580005218107802006D3A262A04D80CA880220E
:10459000411880200A7026270CAAD219127811001F
:1045A0006D39262903D880220CA9C9190A7027273A
:1045B0000CA9C91909788C466D39262905D880219E
:1045C0008C460CA9C91967460F70514609688A467E
:1045D00069B2184D2D7801920695002505954D4636
:1045E0000495454603956546524600900295200085
:1045F0000CF002F82623099A310053435B4418005B
:10460000262206F0DFFCD5E6032080463179090733
:10461000090F884580414042400080461DE70F2138
:104620001140C81F471EB84113900EE750CB02201F
:10463000ACE7022066E60220F0B54746CE4680B5DC
:104640008BB002AC904605000E001F220021200016
:104650001F0006F0B1FC0223237043460133052BF3
:1046600000D985E048499A008A58974640226271ED
:10467000A271464A12789446002A30D1012122784C
:104680000A432270002F3DD1EA00511BC900491B8B
:104690003F48891949009146425C002A56D0475448
:1046A000D9B24B465B1BDB005B1B9B195B00C3183D
:1046B00059701F23052200933100230028000AF0BF
:1046C00093FA0BB0C0BCB946B046F0BD142262717B
:1046D0001432E2712D4A12789446002ACED001217C
:1046E00008002C4A12786271104011423DD0803A85
:1046F000D0B20022A271E071012122780A43227017
:10470000002F02D0C0222271E270EA00511BC900C2
:10471000491B1F48891949009146425CBA421BD087
:104720004A46511B6246C900491B89194900475432
:10473000002AB5D0174B1978B3E74022E27198E709
:104740004022627195E74022A27192E742185278A6
:104750009342B6D04754A3E7421852789342DFD130
:104760006346002BADD04754E4E74032D2B2C1E7F4
:1047700020226271084AE2804246013200D078E786
:10478000024A12789446B7E7480E011073E60220F9
:1047900050F401206EE6022020200000F8B504004D
:1047A0000D0016001F0003F029F900291CDB0AD0B8
:1047B000FA220023920005F0C3FC0E4A1368C31AC4
:1047C000132B09D8F8BDFA21890005F07BFC094AB2
:1047D0001368C31A132BF5D910603B00320029006F
:1047E0002000FFF729FFEDE73F21034B034A044870
:1047F00004F04EF86CD502201C060110600E01106A
:1048000038060110054A0023904205D1044B9C460E
:1048100061444B425941CBB2180070474C0500002F
:104820001AF3FFFFC3001B1ADB00181A024A034BDE
:10483000401840001A52704700FFFFFFE4F60120C5
:1048400070B5022205000C000078097801F014F818
:10485000002801D0012070BD02226178687801F043
:104860000BF80028F6D10222A178A87801F004F80C
:104870000028EFD10222E178E87800F0FDFF00285F
:10488000E8D102222179287900F0F6FF0028E1D151
:1048900002226179687900F0EFFF0028DAD1EA7925
:1048A000E3799A42D6D12A7A237A9A42D2D16B7A84
:1048B000627A53405B07CDD12022AB5CA25C5340AF
:1048C0005BB2002BC6DB213521342A7823789A424B
:1048D000C0D16A7863789A42BCD1AA78A3780020C4
:1048E0009A42B7D1B7E7C046F0B54E464546DE46D8
:1048F0005746E0B5137805000E00A1B0012B06D095
:1049000021B0F0BCBB46B246A946A046F0BD17ACEC
:10491000511C2000242206F055FB6B1E984642468F
:10492000844BD1009C460A9307238818800060447A
:10493000627A0991417AD2080B40D20013432100D8
:104940004372FFF77DFF0028DAD010234020E27980
:104950009946010013400B932023022711409C46E7
:104960000C9113409B46237A1F400D9704271F404C
:104970000E9708271F400F974F461F401097674616
:1049800018401F4011971290607A13900E20104229
:1049900000D0BCE00027013010401497002800D060
:1049A000BCE00227E07915970007000F624F52B272
:1049B000B9460C9FD243794279415F4609018C4642
:1049C00079427941674649010F43BB460B9FD20F9D
:1049D000794279415F464903394312030A43012171
:1049E0000D9F8C46994389030A43794279410E9F72
:1049F000C90311437A427A410F9F12020A43794256
:104A00007941109F490211437A427A41119F9201E4
:104A10000A4379427941129FC9015BB21143DB43DA
:104A20007A427A41DB0F12040A435B041343624665
:104A300013998A4392021343149A0F211343159A30
:104A40001A430300944602220D330B400B30014001
:104A50009A429B418A42924167465B429B00524286
:104A60003B43D20013434A462027136023780EAA03
:104A7000D219137063782122DB430EA989180B70B9
:104A80002221A3780EAA52181370E3782322DB4365
:104A90000EA989180B7023790EAA9A466379944659
:104AA0009B460B00222161440A00212116A8614483
:104AB00000F0F0FE494621480EAB0078DB190A6889
:104AC0001B7806900020059058460490504671B21D
:104AD0002226039003370EA8C71938780EAF02902C
:104AE000BE193078019021203818007800902800F5
:104AF0000BF082FD0A9B099F9C464744BF00674418
:104B000007CC07C707CC07C707CC07C7F8E60F20B5
:104B10001040C71F791E8F4114973FE70327BC46FB
:104B2000E0790007000F8445BF417F427F00159761
:104B30003CE7C04610CC0220ACE7022066E602202B
:104B4000F0B51E000223CE46474605000A209946CE
:104B500080B58FB090460F002E220021684406F0E9
:104B60002BFA464B02AC23804B466375FD3323760C
:104B7000637343466E21A22248460133A175E27554
:104B8000A072E1722273052B6DD83D4A9B00D35869
:104B90009F462B231F221F20E2543A4BA3853A4BFA
:104BA0001B78002B0ED0394B2C2218782B23E05485
:104BB000374B1B781900A35440310132A154803B7C
:104BC0000132A354002E01D0324B6380EB00984693
:104BD0005B1BDB005B1B3049DB195B00CA5CB2422C
:104BE00003D1CB185B78834238D043465A1B30231D
:104BF000D200521BD21952008E54891848700522D7
:104C0000009339002300280009F0EEFF0FB0C0BC6C
:104C1000B946B046F0BD2B230422E25401331032D2
:104C2000E254023314320420E254B8E72B230A2260
:104C3000E254033336320A20E254B0E72B23152224
:104C4000E25401332B321520E254A8E72B231B2218
:104C5000E254023325321B20E254A0E70A4B1B78B2
:104C6000002BD3D0C1E72E232022E2540B4B00208F
:104C7000A38543460133A5D091E7C0460F14000039
:104C80008C0E01104040000073E60220B814002092
:104C90006EE60220C0C0FFFFE4F6012020200000E5
:104CA000F8B504000D0016001F0002F0A7FE002951
:104CB0001CDB0AD0FA220023920005F041FA0E4ACA
:104CC0001368C31A132B09D8F8BDFA21890005F01F
:104CD000F9F9094A1368C31A132BF5D910603B0080
:104CE000320029002000FFF72BFFEDE73F21034BA7
:104CF000034A044803F0CCFD70D502201C060110C5
:104D0000A40E011038060110054A0023904205D177
:104D1000044B9C4661444B425941CBB2180070474A
:104D20004C05000026F3FFFFF0B54546DE4657462A
:104D30004E46E0B595B013AC0500089009912000EF
:104D40001100032206F03EF96E4B013D98466F00BC
:104D5000A2787B1943449A7019782278914200D145
:104D6000B5E00822237804201A400B920222110099
:104D700019408B46402119400D91102119400E9188
:104D80002021184019400C900F9161788A461140FB
:104D900052469206120F9446109152463C21114001
:104DA0000F22082900D17DE0182900D19DE0282993
:104DB00000D177E0914662464846564608320240A6
:104DC0001D30304200D096E00221614589414942C0
:104DD0008946022A00D980E002220A92002211921A
:104DE00000229446564660463F32B24240410A99FC
:104DF00082020A430C990D9E4842414149011143E8
:104E00005A465042424112010A430B9948424141DD
:104E100049030A43012108009843000302435BB29F
:104E200070427041DB4380031043DB0F0E9ADB03BB
:104E3000184353425A410F9B1202024358424341C6
:104E40005B0213435246914389011943109B089812
:104E50005A425341DB011943119BC02219434B466F
:104E600092021943284B0A431A6024216B465B18AF
:104E700000215956634606930593049303938033A8
:104E80000293019300930BF0B7FB781903222100E2
:104E9000404406F097F815B0F0BCBB46B246A946B0
:104EA000A046F0BD614608310A4000210A91022166
:104EB0008946E14589414942894608211191022AE2
:104EC00000D88DE7494604221143894688E75A787D
:104ED00063789A4200D044E7DDE704221143023AA6
:104EE0000A920022894611927AE7614608310A4007
:104EF00000210A91DBE7202900D165E702210A9110
:104F0000D5E7C046F0C90220ACE70220084A0023DA
:104F1000904201D018007047064B994206D0064BCC
:104F20009C4661444B425941CBB2F3E70123F1E780
:104F30007E05000009200000F2DFFFFF0A00530099
:104F40009B189B009B18124A10B550430022012465
:104F500010491B185A54CB189C72FE345A709A7020
:104F6000DA701A715A719A71DA711A725A72DA72A7
:104F70001C73094B0918CB181A70084B9C466144E6
:104F80000A78131C002A00D10123013B0B7010BDCD
:104F9000CE02000074D50220CD020000CB0200003A
:104FA000F0B557469A46884BDE469B464B004E4628
:104FB0005C189946854B454643439846A400E0B5A6
:104FC000641844445C44E37806000D0087B0002B6D
:104FD00062D06379002B0AD12379002B00D083E0C3
:104FE00007B0F0BCBB46B246A946A046F0BD0023C0
:104FF0000A22002103A8029305F0DEFF102302AF6E
:105000003B70E379002B56D0237A002B00D192E03D
:1050100043466F4A5B449A1812782900012A04D04B
:10502000B322920094466344197830000BF0D4FA0E
:10503000684B1B78002B69D1002800DA86E04B46CC
:10504000624A5B1972439B005B199B185B441B7B94
:1050500083427BD0604A1378591C7B7001233B70DC
:105060002F331170BB72042800D9AAE05B4B1B18C8
:105070005B78FB724B46554A5B1972439B005B1988
:105080009B185B4418730C23009300223B002900FB
:10509000300009F0A9FDA3E7A02202AB92001A801C
:1050A00002220092002209F09FFD2900E0703000EA
:1050B00009F06EFD94E7484A1378591C1170484A6C
:1050C0007B707A818822012352003B70BA81E371A0
:1050D0000D33009300223B002900300009F084FDCD
:1050E000642002F03DFB7BE7902202ABD2001A80E5
:1050F00002220092002209F077FD6071642002F024
:105100002FFB2900300009F043FD69E7324A13788C
:10511000591C7B7001233B702F331170BB72042824
:1051200003D9213BFB72431CA4D02E4B1A780F23CA
:105130001340FB729EE7284A1378591C7B700123A9
:105140001170294A3B707A812372C1E74B461F4A8E
:105150005B1972439B005B199B185B44DB7A5345D8
:1051600000D13DE750461C490A78531CDBB20028A9
:1051700020D1D0464024013084463F300B701023AC
:105180003B704346BB706346FB704346BB7163464E
:10519000FB714B467A700D4A5B1972439B005B1999
:1051A0009B1852465B44DA723C710A2378713C7258
:1051B000787269E7202080465830844628241A38BF
:1051C000DCE70F23FB7255E774D50220CE02000006
:1051D000CB02000073E6022078E6022010060110E0
:1051E000380F00006EE6022003300000184A70B548
:1051F0004243040001204B005B189B00154D5B18D7
:105200009B18EB189872144BAA18D018037882B028
:105210000133DBB20370012B04D1B3239B009C4606
:10522000624411706B469E1D3200200001A907F0F8
:105230008BFE0A4B32889A4207D1054B6343ED1827
:10524000074B9C46012365442B7002B070BDC046DD
:10525000CE02000074D50220CB020000092000001D
:10526000CD020000F8B5042205000E00408E498EE4
:1052700000F002FB002815D00127F11CE81C0322D6
:105280000BF0A2F83100040028003C4324220D3129
:105290000D300BF099F8631E9C410443631E9C4142
:1052A000E0B2F8BD0422B18EA88E00F0E5FA002825
:1052B000E2D10422F18EE88E00F0DEFA0028DBD184
:1052C0000422318F288F00F0D7FA0700D5E7C046B7
:1052D000F0B54546DE4657464E46E0B51700BFB02E
:1052E00020AC06000D003A223900200005F06AFECD
:1052F00023789846302B40D03A2239002FA805F069
:1053000061FE5C2218AB9B1882221B88FF329342FD
:1053100020D0D84A934200D194E1D74A934200D199
:1053200084E1D64A934200D198E15C2218AB9B18E5
:105330001B78212B00D191E14346812B03D1290019
:10534000300009F025FC3FB0F0BCBB46B246A94690
:10535000A046F0BD243A18ABFF3A9B181B78002BEF
:1053600000D057E1C6496B0071435B199B005B1984
:105370005B180121C34A9954DEE7C14A6B007243AE
:10538000C0495B199B008C465B199B180122634442
:105390009A710891A179F0220800E77912013B0285
:1053A0003F093900134018430C90237A80461B01B3
:1053B00019430D91A37A0F00A18619020A40617A60
:1053C0001B0911438A46E1861900731E9B46DB00C8
:1053D000E27A60860A9318003A2358446B4300012E
:1053E00058444000C018A84B12019C461143099133
:1053F0000E912187604421000B93FFF733FF0028B3
:10540000A1D008212279637911409946E37815915A
:10541000042111404A469207D20F0F924A46520782
:10542000D20F10924A46D207D20F12924A46120762
:10543000D20F13925A07D20F17921A07D20F18924F
:10544000DA07D20F19929A07D20F1A924A465206D9
:10545000D20F1B925A06D20F16911C92A1888B4A2A
:105460005BB2114200D14DE10022DB431D921E933D
:1054700023799A07D20F1F92089ADB069446DB0F16
:1054800014937F4B824A73436344944663441B786E
:10549000002B00D102E10C9B002B00D1DBE1013B92
:1054A0001802C01A7B4904F0E5FD0130C3B20C9329
:1054B0000D9B002B00D1CBE1013B1802C01A7549AE
:1054C00004F0D8FD0130C3B20D935346002B00D138
:1054D000BBE1013B1802C01A6E4904F0CBFD01305C
:1054E000C3B21193099B002B00D18FE1013B18023D
:1054F0006849C01A04F0BEFD01220130C3B209930D
:105500000F9B13985340DBB20E931F9B129953408D
:10551000DBB2DB010F93109B50405340DBB25B00CA
:105520009A46149B51405340DAB2C0B2C9B29302BA
:10553000C000890010930127189B179A7B407A407E
:10554000DBB2D2B252011B011343199A7A40D2B294
:10555000520313431A9A7A40D2B2120313431B9A8E
:105560007A40D2B2120213431C9A7A40D2B292010C
:105570001A434B465BB2DB43DB0F9B031A43904657
:10558000159A169F5342534142461B0413437A42D5
:105590007A41520413431D9A13431E9AD20FD20329
:1055A00013430E9A13430F9A134352461343034374
:1055B0000B430899109A8C46B3211A43364B890045
:1055C0001A602F4B734363448C4663441B78AB4291
:1055D00000D19DE0012149420023069305930493E5
:1055E0000393099B30000293119B01930D9B009341
:1055F0000C9B0BF001F83A235D430A9B0B9A5B442A
:105600001B015B445B00EB18D01821003A2205F027
:10561000D9FC98E6032B00D08EE629003000FFF776
:105620008DFC29003000FBF75BF885E614496B0020
:1056300071435B199B00134A5B195B18D218012355
:10564000937079E60E496B0071435B199B000D4A1C
:105650005B195B18D218012313716DE608496B00C2
:1056600071435B199B00074A5B195B18D218012331
:10567000937261E6810200008103000081920000C4
:10568000CE02000074D50220A8CF02200180FFFFC7
:10569000CD020000FF0F0000ACE702205346002BB4
:1056A00038D1099B002B00D0D8E00C9B0D9A1343F6
:1056B0007ED108236E4F0C93013F38026D49C01B09
:1056C00004F0D8FC0130C3B20D9301230F9A139854
:1056D0005A40D2B20E92109A12995A40D2B2520047
:1056E0009246149A58405A405940D3B29B021093A4
:1056F00080230F930023C0B2C9B2C0008900099370
:10570000119318E7DB431E93DB0F5B021D93AFE69B
:1057100069B261E70C9B002B28D10D9B002B25D192
:105720005346013B1802C01A524904F0A3FC013051
:10573000C3B211930E9B4F497E331802C01A04F076
:1057400099FC0130C3B2099301231F9A04215A40E6
:10575000D3010F938023DB00109302239A46013B71
:105760000E93002308200D930C93E4E601220F9B77
:1057700013985340DBB20E931F9B12995340DBB238
:10578000DB010F93109B50405340DBB25B009A4605
:10579000149B51405340DAB2930210930023C0B2DD
:1057A000C9B2C0008900099311930D930C93C2E60E
:1057B00043467E331802C01A2E4904F05BFC7F3F3B
:1057C0000130C3B2BFB20C93002F00D074E70122A6
:1057D0000F9B13985340DBB20E93109B12995340CA
:1057E000DBB25B009A46149B504053405140DAB202
:1057F0009302109380230F930023C0B2C9B2099380
:1058000011930133C00089000D9394E601220F9B90
:1058100013985340DBB20E931F9B12995340DBB297
:10582000DB010F93109B50405340DBB25B009A4664
:10583000149B51405340DAB2930210930123C0B23B
:10584000C9B2C0008900099375E60123119349E6A6
:1058500001230D9339E601230C9329E60C9B002BC1
:1058600084D10D9B002B81D10123119362E7C046A7
:1058700081FF0000FF0F0000030010B5441A012053
:10588000944203DCC91A8A4201DAC0B210BD00207A
:10589000FBE7C04610B50478002C01D10134047038
:1058A0000878002801D1013008701178002901D151
:1058B000013111701A78002A01D101321A7010BD1D
:1058C000104B114A1A60114A5A60114A9A60114AE3
:1058D000DA60114A1A61114A5A61114A9A61114AF1
:1058E000DA61114A1A62114A5A62114A9A62114ADD
:1058F000DA62114A1A63114A5A63114A9A63114AC9
:10590000DA63704704D50120F81500201416002032
:10591000301600204C1600201815002034150020E9
:105920005015002088150020A4150020C015002067
:10593000DC1500206C15002068160020FC140020E7
:10594000C4140020E01400200123037000487047B5
:105950000C270110F0B54546DE4657464E469823C3
:10596000E0B5D35C04000D008DB0002B00D0AEE09C
:10597000937B002B00D1AAE0D37B002B00D1A6E0C3
:105980000621535E802109028C466344901C1B1241
:1059900000D10133DBB20B930623C15E80231B02CF
:1059A0009C466144091200D10131CBB20A9308230D
:1059B000C15E80231B029C466144091200D1013163
:1059C000CBB209930A23C15E80231B029C4661442B
:1059D0000B129C4601D101339C46012683789846E0
:1059E000C3785088320082439346002299461100C2
:1059F000C8234746BB4251419A465B4609021943B8
:105A00008B461300574649468F42534159465B0225
:105A1000C73F194343087B4033409B001943830829
:105A20007B403340DB001943C3087B4033405B00BD
:105A30001943030B7B4033401B011943430B7B404D
:105A400033405B011943830B7B4033401B031943F5
:105A500003B2DB43DB0F5B031943030A7B40334094
:105A60009B031943430A7B4033409B01194343097D
:105A70007B403340DB03194303097B403340DB01A8
:105A8000194383097B4033401B041943C3097B40FE
:105A900033405B0419434B46800A78403040800213
:105AA0000843104E10493678086004934346039328
:105AB00063460592DAB2099B029201930A9B0200A7
:105AC000009320000B9B69B206960AF095FD290011
:105AD000200009F0DFFC0DB0F0BCBB46B246A94681
